{
  "contractName": "Register",
  "abi": [
    {
      "constant": true,
      "inputs": [],
      "name": "govermentEntity",
      "outputs": [
        {
          "name": "",
          "type": "address"
        }
      ],
      "payable": false,
      "stateMutability": "view",
      "type": "function"
    },
    {
      "inputs": [],
      "payable": false,
      "stateMutability": "nonpayable",
      "type": "constructor"
    },
    {
      "constant": false,
      "inputs": [
        {
          "name": "addr",
          "type": "address"
        },
        {
          "name": "manufacturerLocation",
          "type": "string"
        },
        {
          "name": "manufacturerName",
          "type": "string"
        }
      ],
      "name": "registerManufactuerer",
      "outputs": [],
      "payable": false,
      "stateMutability": "nonpayable",
      "type": "function"
    },
    {
      "constant": true,
      "inputs": [
        {
          "name": "addr",
          "type": "address"
        }
      ],
      "name": "getManufactuererDetails",
      "outputs": [
        {
          "name": "",
          "type": "address"
        },
        {
          "name": "",
          "type": "string"
        },
        {
          "name": "",
          "type": "string"
        }
      ],
      "payable": false,
      "stateMutability": "view",
      "type": "function"
    },
    {
      "constant": false,
      "inputs": [
        {
          "name": "addr",
          "type": "address"
        },
        {
          "name": "buyerName",
          "type": "string"
        },
        {
          "name": "buyerLocation",
          "type": "string"
        },
        {
          "name": "buyerBusinessType",
          "type": "string"
        }
      ],
      "name": "registerBuyer",
      "outputs": [],
      "payable": false,
      "stateMutability": "nonpayable",
      "type": "function"
    },
    {
      "constant": true,
      "inputs": [
        {
          "name": "addr",
          "type": "address"
        }
      ],
      "name": "getBuyerDetails",
      "outputs": [
        {
          "name": "",
          "type": "address"
        },
        {
          "name": "",
          "type": "string"
        },
        {
          "name": "",
          "type": "string"
        },
        {
          "name": "",
          "type": "string"
        }
      ],
      "payable": false,
      "stateMutability": "view",
      "type": "function"
    },
    {
      "constant": false,
      "inputs": [
        {
          "name": "addr",
          "type": "address"
        },
        {
          "name": "sellerLocation",
          "type": "string"
        },
        {
          "name": "sellerName",
          "type": "string"
        },
        {
          "name": "sortingMachineAddress",
          "type": "address[]"
        }
      ],
      "name": "registerSeller",
      "outputs": [],
      "payable": false,
      "stateMutability": "nonpayable",
      "type": "function"
    },
    {
      "constant": true,
      "inputs": [
        {
          "name": "addr",
          "type": "address"
        }
      ],
      "name": "getSellerDetails",
      "outputs": [
        {
          "name": "",
          "type": "address"
        },
        {
          "name": "",
          "type": "string"
        },
        {
          "name": "",
          "type": "string"
        }
      ],
      "payable": false,
      "stateMutability": "view",
      "type": "function"
    },
    {
      "constant": true,
      "inputs": [
        {
          "name": "addr",
          "type": "address"
        }
      ],
      "name": "getSellerSortingmMachineDetails",
      "outputs": [
        {
          "name": "",
          "type": "address[]"
        }
      ],
      "payable": false,
      "stateMutability": "view",
      "type": "function"
    },
    {
      "constant": true,
      "inputs": [
        {
          "name": "addr",
          "type": "address"
        }
      ],
      "name": "isBuyerExist",
      "outputs": [
        {
          "name": "",
          "type": "bool"
        }
      ],
      "payable": false,
      "stateMutability": "view",
      "type": "function"
    },
    {
      "constant": true,
      "inputs": [
        {
          "name": "manufacturerAddress",
          "type": "address"
        }
      ],
      "name": "getManufactuererIdentifier",
      "outputs": [
        {
          "name": "",
          "type": "uint256"
        }
      ],
      "payable": false,
      "stateMutability": "view",
      "type": "function"
    },
    {
      "constant": true,
      "inputs": [
        {
          "name": "addr",
          "type": "address"
        }
      ],
      "name": "isManufactuererExist",
      "outputs": [
        {
          "name": "",
          "type": "bool"
        }
      ],
      "payable": false,
      "stateMutability": "view",
      "type": "function"
    }
  ],
  "bytecode": "0x608060405234801561001057600080fd5b50336000806101000a81548173ffffffffffffffffffffffffffffffffffffffff021916908373ffffffffffffffffffffffffffffffffffffffff160217905550600060018190555061222d806100686000396000f3fe6080604052600436106100af576000357c0100000000000000000000000000000000000000000000000000000000900463ffffffff1680631588c5b6146100b4578063160067831461010b57806347580aad1461031e578063495e6221146105345780635c8e05451461059957806368cfe6ee146107025780638e2dce26146108d7578063933b55c61461097d578063b3c8fe8514610afc578063b884907314610c65578063efea4f9e14610cce575b600080fd5b3480156100c057600080fd5b506100c9610d37565b604051808273ffffffffffffffffffffffffffffffffffffffff1673ffffffffffffffffffffffffffffffffffffffff16815260200191505060405180910390f35b34801561011757600080fd5b5061031c6004803603608081101561012e57600080fd5b81019080803573ffffffffffffffffffffffffffffffffffffffff1690602001909291908035906020019064010000000081111561016b57600080fd5b82018360208201111561017d57600080fd5b8035906020019184600183028401116401000000008311171561019f57600080fd5b91908080601f016020809104026020016040519081016040528093929190818152602001838380828437600081840152601f19601f8201169050808301925050505050505091929192908035906020019064010000000081111561020257600080fd5b82018360208201111561021457600080fd5b8035906020019184600183028401116401000000008311171561023657600080fd5b91908080601f016020809104026020016040519081016040528093929190818152602001838380828437600081840152601f19601f8201169050808301925050505050505091929192908035906020019064010000000081111561029957600080fd5b8201836020820111156102ab57600080fd5b803590602001918460208302840111640100000000831117156102cd57600080fd5b919080806020026020016040519081016040528093929190818152602001838360200280828437600081840152601f19601f820116905080830192505050505050509192919290505050610d5c565b005b34801561032a57600080fd5b506105326004803603608081101561034157600080fd5b81019080803573ffffffffffffffffffffffffffffffffffffffff1690602001909291908035906020019064010000000081111561037e57600080fd5b82018360208201111561039057600080fd5b803590602001918460018302840111640100000000831117156103b257600080fd5b91908080601f016020809104026020016040519081016040528093929190818152602001838380828437600081840152601f19601f8201169050808301925050505050505091929192908035906020019064010000000081111561041557600080fd5b82018360208201111561042757600080fd5b8035906020019184600183028401116401000000008311171561044957600080fd5b91908080601f016020809104026020016040519081016040528093929190818152602001838380828437600081840152601f19601f820116905080830192505050505050509192919290803590602001906401000000008111156104ac57600080fd5b8201836020820111156104be57600080fd5b803590602001918460018302840111640100000000831117156104e057600080fd5b91908080601f016020809104026020016040519081016040528093929190818152602001838380828437600081840152601f19601f82011690508083019250505050505050919291929050505061117b565b005b34801561054057600080fd5b506105836004803603602081101561055757600080fd5b81019080803573ffffffffffffffffffffffffffffffffffffffff169060200190929190505050611477565b6040518082815260200191505060405180910390f35b3480156105a557600080fd5b506105e8600480360360208110156105bc57600080fd5b81019080803573ffffffffffffffffffffffffffffffffffffffff1690602001909291905050506114c3565b604051808473ffffffffffffffffffffffffffffffffffffffff1673ffffffffffffffffffffffffffffffffffffffff1681526020018060200180602001838103835285818151815260200191508051906020019080838360005b8381101561065e578082015181840152602081019050610643565b50505050905090810190601f16801561068b5780820380516001836020036101000a031916815260200191505b50838103825284818151815260200191508051906020019080838360005b838110156106c45780820151818401526020810190506106a9565b50505050905090810190601f1680156106f15780820380516001836020036101000a031916815260200191505b509550505050505060405180910390f35b34801561070e57600080fd5b506107516004803603602081101561072557600080fd5b81019080803573ffffffffffffffffffffffffffffffffffffffff1690602001909291905050506116f4565b604051808573ffffffffffffffffffffffffffffffffffffffff1673ffffffffffffffffffffffffffffffffffffffff168152602001806020018060200180602001848103845287818151815260200191508051906020019080838360005b838110156107cb5780820151818401526020810190506107b0565b50505050905090810190601f1680156107f85780820380516001836020036101000a031916815260200191505b50848103835286818151815260200191508051906020019080838360005b83811015610831578082015181840152602081019050610816565b50505050905090810190601f16801561085e5780820380516001836020036101000a031916815260200191505b50848103825285818151815260200191508051906020019080838360005b8381101561089757808201518184015260208101905061087c565b50505050905090810190601f1680156108c45780820380516001836020036101000a031916815260200191505b5097505050505050505060405180910390f35b3480156108e357600080fd5b50610926600480360360208110156108fa57600080fd5b81019080803573ffffffffffffffffffffffffffffffffffffffff169060200190929190505050611a07565b6040518080602001828103825283818151815260200191508051906020019060200280838360005b8381101561096957808201518184015260208101905061094e565b505050509050019250505060405180910390f35b34801561098957600080fd5b50610afa600480360360608110156109a057600080fd5b81019080803573ffffffffffffffffffffffffffffffffffffffff169060200190929190803590602001906401000000008111156109dd57600080fd5b8201836020820111156109ef57600080fd5b80359060200191846001830284011164010000000083111715610a1157600080fd5b91908080601f016020809104026020016040519081016040528093929190818152602001838380828437600081840152601f19601f82011690508083019250505050505050919291929080359060200190640100000000811115610a7457600080fd5b820183602082011115610a8657600080fd5b80359060200191846001830284011164010000000083111715610aa857600080fd5b91908080601f016020809104026020016040519081016040528093929190818152602001838380828437600081840152601f19601f820116905080830192505050505050509192919290505050611ad7565b005b348015610b0857600080fd5b50610b4b60048036036020811015610b1f57600080fd5b81019080803573ffffffffffffffffffffffffffffffffffffffff169060200190929190505050611df9565b604051808473ffffffffffffffffffffffffffffffffffffffff1673ffffffffffffffffffffffffffffffffffffffff1681526020018060200180602001838103835285818151815260200191508051906020019080838360005b83811015610bc1578082015181840152602081019050610ba6565b50505050905090810190601f168015610bee5780820380516001836020036101000a031916815260200191505b50838103825284818151815260200191508051906020019080838360005b83811015610c27578082015181840152602081019050610c0c565b50505050905090810190601f168015610c545780820380516001836020036101000a031916815260200191505b509550505050505060405180910390f35b348015610c7157600080fd5b50610cb460048036036020811015610c8857600080fd5b81019080803573ffffffffffffffffffffffffffffffffffffffff16906020019092919050505061202a565b604051808215151515815260200191505060405180910390f35b348015610cda57600080fd5b50610d1d60048036036020811015610cf157600080fd5b81019080803573ffffffffffffffffffffffffffffffffffffffff169060200190929190505050612083565b604051808215151515815260200191505060405180910390f35b6000809054906101000a900473ffffffffffffffffffffffffffffffffffffffff1681565b6000809054906101000a900473ffffffffffffffffffffffffffffffffffffffff1673ffffffffffffffffffffffffffffffffffffffff163373ffffffffffffffffffffffffffffffffffffffff16141515610e46576040517f08c379a000000000000000000000000000000000000000000000000000000000815260040180806020018281038252602f8152602001807f456e74697479206e6f7420617574686f72697a656420746f207265676973746581526020017f72207374616b65686f6c646572732e000000000000000000000000000000000081525060400191505060405180910390fd5b60001515600460008673ffffffffffffffffffffffffffffffffffffffff1673ffffffffffffffffffffffffffffffffffffffff16815260200190815260200160002060040160009054906101000a900460ff161515141515610f11576040517f08c379a000000000000000000000000000000000000000000000000000000000815260040180806020018281038252601d8152602001807f53656c6c6572206973207265676973746572656420616c72656164792e00000081525060200191505060405180910390fd5b83600460008673ffffffffffffffffffffffffffffffffffffffff1673ffffffffffffffffffffffffffffffffffffffff16815260200190815260200160002060000160006101000a81548173ffffffffffffffffffffffffffffffffffffffff021916908373ffffffffffffffffffffffffffffffffffffffff16021790555082600460008673ffffffffffffffffffffffffffffffffffffffff1673ffffffffffffffffffffffffffffffffffffffff1681526020019081526020016000206001019080519060200190610fe89291906120dc565b5081600460008673ffffffffffffffffffffffffffffffffffffffff1673ffffffffffffffffffffffffffffffffffffffff168152602001908152602001600020600201908051906020019061103f9291906120dc565b506001600460008673ffffffffffffffffffffffffffffffffffffffff1673ffffffffffffffffffffffffffffffffffffffff16815260200190815260200160002060040160006101000a81548160ff02191690831515021790555060008090505b815181101561117457600460008673ffffffffffffffffffffffffffffffffffffffff1673ffffffffffffffffffffffffffffffffffffffff16815260200190815260200160002060030182828151811015156110fa57fe5b9060200190602002015190806001815401808255809150509060018203906000526020600020016000909192909190916101000a81548173ffffffffffffffffffffffffffffffffffffffff021916908373ffffffffffffffffffffffffffffffffffffffff1602179055505080806001019150506110a1565b5050505050565b6000809054906101000a900473ffffffffffffffffffffffffffffffffffffffff1673ffffffffffffffffffffffffffffffffffffffff163373ffffffffffffffffffffffffffffffffffffffff16141515611265576040517f08c379a000000000000000000000000000000000000000000000000000000000815260040180806020018281038252602f8152602001807f456e74697479206e6f7420617574686f72697a656420746f207265676973746581526020017f72207374616b65686f6c646572732e000000000000000000000000000000000081525060400191505060405180910390fd5b60001515600360008673ffffffffffffffffffffffffffffffffffffffff1673ffffffffffffffffffffffffffffffffffffffff16815260200190815260200160002060040160009054906101000a900460ff161515141515611330576040517f08c379a000000000000000000000000000000000000000000000000000000000815260040180806020018281038252601c8152602001807f4275796572206973207265676973746572656420616c72656164792e0000000081525060200191505060405180910390fd5b60a0604051908101604052808573ffffffffffffffffffffffffffffffffffffffff16815260200184815260200183815260200182815260200160011515815250600360008673ffffffffffffffffffffffffffffffffffffffff1673ffffffffffffffffffffffffffffffffffffffff16815260200190815260200160002060008201518160000160006101000a81548173ffffffffffffffffffffffffffffffffffffffff021916908373ffffffffffffffffffffffffffffffffffffffff160217905550602082015181600101908051906020019061141392919061215c565b50604082015181600201908051906020019061143092919061215c565b50606082015181600301908051906020019061144d92919061215c565b5060808201518160040160006101000a81548160ff02191690831515021790555090505050505050565b6000600260008373ffffffffffffffffffffffffffffffffffffffff1673ffffffffffffffffffffffffffffffffffffffff168152602001908152602001600020600301549050919050565b6000606080600260008573ffffffffffffffffffffffffffffffffffffffff1673ffffffffffffffffffffffffffffffffffffffff16815260200190815260200160002060000160009054906101000a900473ffffffffffffffffffffffffffffffffffffffff16600260008673ffffffffffffffffffffffffffffffffffffffff1673ffffffffffffffffffffffffffffffffffffffff168152602001908152602001600020600101600260008773ffffffffffffffffffffffffffffffffffffffff1673ffffffffffffffffffffffffffffffffffffffff168152602001908152602001600020600201818054600181600116156101000203166002900480601f0160208091040260200160405190810160405280929190818152602001828054600181600116156101000203166002900480156116445780601f1061161957610100808354040283529160200191611644565b820191906000526020600020905b81548152906001019060200180831161162757829003601f168201915b50505050509150808054600181600116156101000203166002900480601f0160208091040260200160405190810160405280929190818152602001828054600181600116156101000203166002900480156116e05780601f106116b5576101008083540402835291602001916116e0565b820191906000526020600020905b8154815290600101906020018083116116c357829003601f168201915b505050505090509250925092509193909250565b60006060806060600360008673ffffffffffffffffffffffffffffffffffffffff1673ffffffffffffffffffffffffffffffffffffffff16815260200190815260200160002060000160009054906101000a900473ffffffffffffffffffffffffffffffffffffffff16600360008773ffffffffffffffffffffffffffffffffffffffff1673ffffffffffffffffffffffffffffffffffffffff168152602001908152602001600020600101600360008873ffffffffffffffffffffffffffffffffffffffff1673ffffffffffffffffffffffffffffffffffffffff168152602001908152602001600020600201600360008973ffffffffffffffffffffffffffffffffffffffff1673ffffffffffffffffffffffffffffffffffffffff168152602001908152602001600020600301828054600181600116156101000203166002900480601f0160208091040260200160405190810160405280929190818152602001828054600181600116156101000203166002900480156118b95780601f1061188e576101008083540402835291602001916118b9565b820191906000526020600020905b81548152906001019060200180831161189c57829003601f168201915b50505050509250818054600181600116156101000203166002900480601f0160208091040260200160405190810160405280929190818152602001828054600181600116156101000203166002900480156119555780601f1061192a57610100808354040283529160200191611955565b820191906000526020600020905b81548152906001019060200180831161193857829003601f168201915b50505050509150808054600181600116156101000203166002900480601f0160208091040260200160405190810160405280929190818152602001828054600181600116156101000203166002900480156119f15780601f106119c6576101008083540402835291602001916119f1565b820191906000526020600020905b8154815290600101906020018083116119d457829003601f168201915b5050505050905093509350935093509193509193565b6060600460008373ffffffffffffffffffffffffffffffffffffffff1673ffffffffffffffffffffffffffffffffffffffff168152602001908152602001600020600301805480602002602001604051908101604052809291908181526020018280548015611acb57602002820191906000526020600020905b8160009054906101000a900473ffffffffffffffffffffffffffffffffffffffff1673ffffffffffffffffffffffffffffffffffffffff1681526020019060010190808311611a81575b50505050509050919050565b6000809054906101000a900473ffffffffffffffffffffffffffffffffffffffff1673ffffffffffffffffffffffffffffffffffffffff163373ffffffffffffffffffffffffffffffffffffffff16141515611bc1576040517f08c379a000000000000000000000000000000000000000000000000000000000815260040180806020018281038252602f8152602001807f456e74697479206e6f7420617574686f72697a656420746f207265676973746581526020017f72207374616b65686f6c646572732e000000000000000000000000000000000081525060400191505060405180910390fd5b60001515600260008573ffffffffffffffffffffffffffffffffffffffff1673ffffffffffffffffffffffffffffffffffffffff16815260200190815260200160002060040160009054906101000a900460ff161515141515611cb2576040517f08c379a00000000000000000000000000000000000000000000000000000000081526004018080602001828103825260248152602001807f4d616e75666163747565726572206973207265676973746572656420616c726581526020017f6164792e0000000000000000000000000000000000000000000000000000000081525060400191505060405180910390fd5b60a0604051908101604052808473ffffffffffffffffffffffffffffffffffffffff168152602001838152602001828152602001600154815260200160011515815250600260008573ffffffffffffffffffffffffffffffffffffffff1673ffffffffffffffffffffffffffffffffffffffff16815260200190815260200160002060008201518160000160006101000a81548173ffffffffffffffffffffffffffffffffffffffff021916908373ffffffffffffffffffffffffffffffffffffffff1602179055506020820151816001019080519060200190611d9792919061215c565b506040820151816002019080519060200190611db492919061215c565b506060820151816003015560808201518160040160006101000a81548160ff021916908315150217905550905050600160008154809291906001019190505550505050565b6000606080600460008573ffffffffffffffffffffffffffffffffffffffff1673ffffffffffffffffffffffffffffffffffffffff16815260200190815260200160002060000160009054906101000a900473ffffffffffffffffffffffffffffffffffffffff16600460008673ffffffffffffffffffffffffffffffffffffffff1673ffffffffffffffffffffffffffffffffffffffff168152602001908152602001600020600101600460008773ffffffffffffffffffffffffffffffffffffffff1673ffffffffffffffffffffffffffffffffffffffff168152602001908152602001600020600201818054600181600116156101000203166002900480601f016020809104026020016040519081016040528092919081815260200182805460018160011615610100020316600290048015611f7a5780601f10611f4f57610100808354040283529160200191611f7a565b820191906000526020600020905b815481529060010190602001808311611f5d57829003601f168201915b50505050509150808054600181600116156101000203166002900480601f0160208091040260200160405190810160405280929190818152602001828054600181600116156101000203166002900480156120165780601f10611feb57610100808354040283529160200191612016565b820191906000526020600020905b815481529060010190602001808311611ff957829003601f168201915b505050505090509250925092509193909250565b6000600360008373ffffffffffffffffffffffffffffffffffffffff1673ffffffffffffffffffffffffffffffffffffffff16815260200190815260200160002060040160009054906101000a900460ff169050919050565b6000600260008373ffffffffffffffffffffffffffffffffffffffff1673ffffffffffffffffffffffffffffffffffffffff16815260200190815260200160002060040160009054906101000a900460ff169050919050565b828054600181600116156101000203166002900490600052602060002090601f016020900481019282601f1061211d57805160ff191683800117855561214b565b8280016001018555821561214b579182015b8281111561214a57825182559160200191906001019061212f565b5b50905061215891906121dc565b5090565b828054600181600116156101000203166002900490600052602060002090601f016020900481019282601f1061219d57805160ff19168380011785556121cb565b828001600101855582156121cb579182015b828111156121ca5782518255916020019190600101906121af565b5b5090506121d891906121dc565b5090565b6121fe91905b808211156121fa5760008160009055506001016121e2565b5090565b9056fea165627a7a723058205c260b347ec26c5af23651296aca31a21b057c4f38c35d14cc8c90d0709dfccf0029",
  "source": "pragma solidity ^0.5.0; \n\ncontract Register{\n    \n    //state variables - stored permanently in contract storage \n    \n    // goverment entity - municipality \n    address public govermentEntity; \n    uint x; \n    \n    //manufacturer\n    struct Manufacturer {\n    address  manufacturerAddress; \n    string  manufacturerLocation;\n    string manufacturerName;\n    uint manufacturerIdenfiter; // used in bottle address production \n    bool isExist;\n    }\n    \n    \n    //buyer \n    struct Buyer{\n    address buyerAddress; \n    string buyerName; \n    string buyerLocation; \n    string buyerBusinessType; \n    bool isExist;\n   \n    }\n  \n    //seller - sorting facility \n    struct Seller {\n        address sellerAddress; \n        string sellerLocation;\n        string sellerName;\n        address [] sortingMachineAddress; // dynamic array \n        bool isExist;\n    }\n    \n    \n    //constructor - initilize state variables\n    constructor() public{\n     govermentEntity = msg.sender; \n     x = 0; \n    }\n    \n    // Mappings \n    mapping (address => Manufacturer) registeredManufacturers; \n    mapping (address => Buyer) registeredBuyers; \n    mapping (address => Seller) registeredSellers; \n    \n    modifier onlyGovermentEntity{\n        require(msg.sender == govermentEntity, \"Entity not authorized to register stakeholders.\");\n        _;\n    }\n    \n    // register manufactuerer if it doesn't exist \n    function registerManufactuerer (address addr, string memory manufacturerLocation,  string memory manufacturerName) public onlyGovermentEntity {\n        require(registeredManufacturers[addr].isExist == false , \"Manufactuerer is registered already.\"); \n        registeredManufacturers[addr] = Manufacturer(addr, manufacturerLocation, manufacturerName,x, true);\n        x++; // increment idenfitier \n    }\n    \n    // returns manufacturer details when called from outside the contract \n    function getManufactuererDetails(address addr) external view returns (address, string memory, string memory){\n        \n        return(registeredManufacturers[addr].manufacturerAddress, registeredManufacturers[addr].manufacturerLocation, registeredManufacturers[addr].manufacturerName);\n    }\n    \n    // register buyer if it doesn't exist \n    function registerBuyer (address addr, string memory buyerName, string memory buyerLocation, string memory buyerBusinessType) public onlyGovermentEntity {\n        require(registeredBuyers[addr].isExist == false , \"Buyer is registered already.\"); \n        \n        registeredBuyers[addr] = Buyer(addr, buyerName, buyerLocation, buyerBusinessType, true);\n    }\n    \n    // returns buyer details when called from outside the contract \n    function getBuyerDetails(address addr) external view returns (address, string memory,string memory, string memory){\n        \n        return(registeredBuyers[addr].buyerAddress, registeredBuyers[addr].buyerName, registeredBuyers[addr].buyerLocation, registeredBuyers[addr].buyerBusinessType);\n    }\n    \n    // register seller if it doesn't exist \n    function registerSeller (address addr, string memory sellerLocation, string  memory sellerName, address[] memory sortingMachineAddress) public onlyGovermentEntity {\n        require(registeredSellers[addr].isExist == false , \"Seller is registered already.\"); \n        \n        registeredSellers[addr].sellerAddress = addr; \n        registeredSellers[addr].sellerLocation = sellerLocation; \n       registeredSellers[addr].sellerName = sellerName; \n        registeredSellers[addr].isExist = true;\n        for (uint256 i =0; i < sortingMachineAddress.length; i++)\n        registeredSellers[addr].sortingMachineAddress.push(sortingMachineAddress[i]); \n       \n    }\n    \n     function getSellerDetails(address addr) external view returns (address, string memory,string memory){\n        \n        return(registeredSellers[addr].sellerAddress, registeredSellers[addr].sellerLocation,registeredSellers[addr].sellerName);\n    }\n    \n    function getSellerSortingmMachineDetails(address addr) external view returns ( address [] memory){\n        return(registeredSellers[addr].sortingMachineAddress); \n    }\n    \n    function isBuyerExist(address addr) external view returns (bool){\n        return(registeredBuyers[addr].isExist);\n    }\n    \n   function getManufactuererIdentifier(address manufacturerAddress) external view returns (uint){\n        return registeredManufacturers[manufacturerAddress].manufacturerIdenfiter; \n   }\n   \n   // to be used with the bottleProductionSC\n   function isManufactuererExist(address addr) external view returns (bool){\n        return(registeredManufacturers[addr].isExist);\n       \n   }\n    \n} ",
  "sourcePath": "/Users/eimanalwahhabi/Desktop/RecycleChain/contracts/Register.sol",
  "compiler": {
    "name": "solc",
    "version": "0.5.0+commit.1d4f565a.Emscripten.clang"
  },
  "schemaVersion": "3.0.1",
  "updatedAt": "2021-01-03T13:27:39.375Z",
  "devdoc": {
    "methods": {}
  },
  "userdoc": {
    "methods": {}
  }
}