{
  "contractName": "BottleProduction",
  "abi": [
    {
      "inputs": [],
      "payable": false,
      "stateMutability": "nonpayable",
      "type": "constructor"
    },
    {
      "anonymous": false,
      "inputs": [
        {
          "indexed": false,
          "internalType": "address",
          "name": "plasticBottleAddress",
          "type": "address"
        },
        {
          "indexed": false,
          "internalType": "uint256",
          "name": "ManufacturerID",
          "type": "uint256"
        },
        {
          "indexed": false,
          "internalType": "uint256",
          "name": "bottlePlasticType",
          "type": "uint256"
        },
        {
          "indexed": false,
          "internalType": "uint256",
          "name": "bottleColor",
          "type": "uint256"
        },
        {
          "indexed": false,
          "internalType": "uint256",
          "name": "bottleSize",
          "type": "uint256"
        },
        {
          "indexed": false,
          "internalType": "uint256",
          "name": "time",
          "type": "uint256"
        }
      ],
      "name": "botteIsRegistered",
      "type": "event"
    },
    {
      "constant": true,
      "inputs": [],
      "name": "bottleAddress",
      "outputs": [
        {
          "internalType": "address",
          "name": "",
          "type": "address"
        }
      ],
      "payable": false,
      "stateMutability": "view",
      "type": "function"
    },
    {
      "constant": true,
      "inputs": [],
      "name": "getBottleAddress",
      "outputs": [
        {
          "internalType": "address",
          "name": "",
          "type": "address"
        }
      ],
      "payable": false,
      "stateMutability": "view",
      "type": "function"
    },
    {
      "constant": true,
      "inputs": [],
      "name": "manufacturingEntity",
      "outputs": [
        {
          "internalType": "address",
          "name": "",
          "type": "address"
        }
      ],
      "payable": false,
      "stateMutability": "view",
      "type": "function"
    },
    {
      "constant": false,
      "inputs": [
        {
          "internalType": "address",
          "name": "registerContractAddr",
          "type": "address"
        },
        {
          "internalType": "uint256",
          "name": "bottlePlasticType",
          "type": "uint256"
        },
        {
          "internalType": "uint256",
          "name": "bottleColor",
          "type": "uint256"
        },
        {
          "internalType": "uint256",
          "name": "bottleSize",
          "type": "uint256"
        }
      ],
      "name": "registerBottle",
      "outputs": [],
      "payable": false,
      "stateMutability": "nonpayable",
      "type": "function"
    }
  ],
  "bytecode": "0x608060405234801561001057600080fd5b50336000806101000a81548173ffffffffffffffffffffffffffffffffffffffff021916908373ffffffffffffffffffffffffffffffffffffffff1602179055506106b1806100606000396000f3fe60806040526004361061004c576000357c0100000000000000000000000000000000000000000000000000000000900463ffffffff168063088ada5a14610051578063efe02a66146100a8575b600080fd5b34801561005d57600080fd5b50610066610117565b604051808273ffffffffffffffffffffffffffffffffffffffff1673ffffffffffffffffffffffffffffffffffffffff16815260200191505060405180910390f35b3480156100b457600080fd5b50610115600480360360808110156100cb57600080fd5b81019080803573ffffffffffffffffffffffffffffffffffffffff16906020019092919080359060200190929190803590602001909291908035906020019092919050505061013c565b005b6000809054906101000a900473ffffffffffffffffffffffffffffffffffffffff1681565b83600081905060008173ffffffffffffffffffffffffffffffffffffffff1663efea4f9e336040518263ffffffff167c0100000000000000000000000000000000000000000000000000000000028152600401808273ffffffffffffffffffffffffffffffffffffffff1673ffffffffffffffffffffffffffffffffffffffff16815260200191505060206040518083038186803b1580156101dd57600080fd5b505afa1580156101f1573d6000803e3d6000fd5b505050506040513d602081101561020757600080fd5b810190808051906020019092919050505090508015156102b5576040517f08c379a00000000000000000000000000000000000000000000000000000000081526004018080602001828103825260308152602001807f4d616e756661637475726572206e6f7420617574686f72697a656420746f207281526020017f6567697374657220626f74746c65732e0000000000000000000000000000000081525060400191505060405180910390fd5b600087905060008173ffffffffffffffffffffffffffffffffffffffff1663495e6221336040518263ffffffff167c0100000000000000000000000000000000000000000000000000000000028152600401808273ffffffffffffffffffffffffffffffffffffffff1673ffffffffffffffffffffffffffffffffffffffff16815260200191505060206040518083038186803b15801561035557600080fd5b505afa158015610369573d6000803e3d6000fd5b505050506040513d602081101561037f57600080fd5b8101908080519060200190929190505050905060006103a0828a8a8a610528565b905060a0604051908101604052808273ffffffffffffffffffffffffffffffffffffffff1681526020018381526020018a815260200189815260200188815250600160008373ffffffffffffffffffffffffffffffffffffffff1673ffffffffffffffffffffffffffffffffffffffff16815260200190815260200160002060008201518160000160006101000a81548173ffffffffffffffffffffffffffffffffffffffff021916908373ffffffffffffffffffffffffffffffffffffffff160217905550602082015181600101556040820151816002015560608201518160030155608082015181600401559050507f8f4fd2e304f0f32e64caa1dd9b2293c299347074ba35f3dbf596e4dfa4371e5481838b8b8b42604051808773ffffffffffffffffffffffffffffffffffffffff1673ffffffffffffffffffffffffffffffffffffffff168152602001868152602001858152602001848152602001838152602001828152602001965050505050505060405180910390a150505050505050505050565b6000803342604051602001808373ffffffffffffffffffffffffffffffffffffffff1673ffffffffffffffffffffffffffffffffffffffff166c010000000000000000000000000281526014018281526020019250505060405160208183030381529060405280519060200120905060008090506000600160140360ff1690505b600181111561062c576002600182601460ff1603030260100a83826014811015156105d057fe5b1a7f0100000000000000000000000000000000000000000000000000000000000000027f0100000000000000000000000000000000000000000000000000000000000000900460ff1602820191508080600190039150506105a9565b50600086601089020190506000856010880201905073010000000000000000000000000000000000000082028301925072010000000000000000000000000000000000008102830192508294505050505094935050505056fea165627a7a723058200fccfce39d1123ad4bd6612be06782a59b90ceda41ef5d8b1c0e6b6475c784b70029",
  "source": "pragma solidity ^0.5.0; \n\ninterface RegisterSC{\n    function getManufactuererIdentifier(address manufacturerAddress) external view returns (uint);\n    function isManufactuererExist(address addr) external view returns (bool);\n}\n\ncontract BottleProduction {\n    //state variables - stored permanently in contract storage \n    \n    // manufacturing entity - manufacturer \n    address public manufacturingEntity; \n    \n    // Plastic Bottle varibles\n    struct PlasticBottle {\n        address  bottleAddress; \n        uint bottleManufacturer;\n        uint bottlePlasticType;\n        uint bottleColor;\n        uint bottleSize;\n    }\n    \n    //constructor - initilize state variables\n    constructor() public{\n        manufacturingEntity = msg.sender; \n    }\n    \n    //events\n    event botteIsRegistered(address plasticBottleAddress, uint ManufacturerID, uint bottlePlasticType, uint bottleColor, uint bottleSize, uint time); \n    \n    // Mappings \n    mapping (address => PlasticBottle) registeredBottles; \n    \n    modifier onlyRegisteredManufacturers (address registerContractAddr) {\n    \n        RegisterSC registerSC = RegisterSC(registerContractAddr); //pass the deployed register contract address \n\n        //to check if the manufacturer has been registered\n        bool isManufactuererExist = registerSC.isManufactuererExist(msg.sender);\n        require(isManufactuererExist, \"Manufacturer not authorized to register bottles.\");\n        _;\n\n    }\n    \n    function registerBottle (address registerContractAddr, uint bottlePlasticType, uint bottleColor, uint bottleSize) public onlyRegisteredManufacturers(registerContractAddr){\n       \n        //get id of manufacturer from register contract\n        RegisterSC registerSC = RegisterSC(registerContractAddr); \n        uint ManufacturerID = registerSC.getManufactuererIdentifier(msg.sender);\n        \n        // gets generated address for bottle\n        address addr = generateUniqueBottleAddress(ManufacturerID, bottlePlasticType, bottleColor, bottleSize);\n        \n        registeredBottles[addr] = PlasticBottle(addr, ManufacturerID, bottlePlasticType, bottleColor, bottleSize);\n        \n        emit botteIsRegistered(addr, ManufacturerID, bottlePlasticType, bottleColor, bottleSize, now);\n    }\n    \n     function generateUniqueBottleAddress (uint ManufacturerID, uint bottlePlasticType, uint bottleColor, uint bottleSize) internal view returns (address) {\n        //https://gist.github.com/techbubble/8f9db0f3ddd83ae0b1786ccf7805c461\n        \n        //generates a unique 20 byte value\n        bytes20 b = bytes20(keccak256(abi.encodePacked(msg.sender, now)));\n        \n        uint addr = 0;\n        for (uint index = b.length-1; index > 1; index--) {// used to extract the least significant 16 bytes\n            addr += uint(uint8(b[index])) * ( 16 ** ((b.length - index - 1)*2));\n        }\n        \n        //this will append the ID's to the bottle address 0x(manufact)(type)(color)(size)...etc\n        uint firstMSByte= ManufacturerID*16 +bottlePlasticType;\n        uint secondMSByte= bottleColor*16 +bottleSize;\n        addr += firstMSByte * ( 16 ** ((19)*2));\n        addr += secondMSByte * ( 16 ** ((18)*2));\n        \n        return address(addr);\n     \n    }\n} ",
  "sourcePath": "/Users/eimanalwahhabi/Desktop/RecycleChain/contracts/BottleProduction.sol",
  "compiler": {
    "name": "solc",
    "version": "0.5.0+commit.1d4f565a.Emscripten.clang"
  },
  "schemaVersion": "3.0.1",
  "updatedAt": "2021-01-03T13:27:39.371Z",
  "devdoc": {
    "methods": {}
  },
  "userdoc": {
    "methods": {}
  }
}