{
  "contractName": "PlasticBale",
  "abi": [
    {
      "inputs": [
        {
          "internalType": "address[]",
          "name": "_plasticBale",
          "type": "address[]"
        },
        {
          "internalType": "address payable[]",
          "name": "_contributors",
          "type": "address[]"
        },
        {
          "internalType": "address payable",
          "name": "seller",
          "type": "address"
        }
      ],
      "payable": false,
      "stateMutability": "nonpayable",
      "type": "constructor"
    },
    {
      "anonymous": false,
      "inputs": [
        {
          "indexed": true,
          "internalType": "address",
          "name": "baleAddress",
          "type": "address"
        },
        {
          "indexed": false,
          "internalType": "address",
          "name": "highestBidder",
          "type": "address"
        },
        {
          "indexed": false,
          "internalType": "uint256",
          "name": "highestBid",
          "type": "uint256"
        },
        {
          "indexed": false,
          "internalType": "uint256",
          "name": "closingTime",
          "type": "uint256"
        }
      ],
      "name": "auctionEnded",
      "type": "event"
    },
    {
      "anonymous": false,
      "inputs": [
        {
          "indexed": true,
          "internalType": "address",
          "name": "baleAddress",
          "type": "address"
        },
        {
          "indexed": false,
          "internalType": "uint256",
          "name": "startingAmount",
          "type": "uint256"
        },
        {
          "indexed": false,
          "internalType": "uint256",
          "name": "closingTime",
          "type": "uint256"
        }
      ],
      "name": "auctionStarted",
      "type": "event"
    },
    {
      "anonymous": false,
      "inputs": [
        {
          "indexed": true,
          "internalType": "address",
          "name": "baleAddress",
          "type": "address"
        },
        {
          "indexed": true,
          "internalType": "address",
          "name": "biddeAddress",
          "type": "address"
        },
        {
          "indexed": false,
          "internalType": "uint256",
          "name": "amount",
          "type": "uint256"
        }
      ],
      "name": "bidPlaced",
      "type": "event"
    },
    {
      "anonymous": false,
      "inputs": [
        {
          "indexed": true,
          "internalType": "address",
          "name": "baleAddress",
          "type": "address"
        },
        {
          "indexed": true,
          "internalType": "address",
          "name": "bidderAddress",
          "type": "address"
        }
      ],
      "name": "bidderExited",
      "type": "event"
    },
    {
      "anonymous": false,
      "inputs": [
        {
          "indexed": true,
          "internalType": "address",
          "name": "baleAddress",
          "type": "address"
        },
        {
          "indexed": true,
          "internalType": "address",
          "name": "bidderAddress",
          "type": "address"
        }
      ],
      "name": "bidderRegistered",
      "type": "event"
    },
    {
      "anonymous": false,
      "inputs": [
        {
          "indexed": true,
          "internalType": "address",
          "name": "recycler",
          "type": "address"
        },
        {
          "indexed": false,
          "internalType": "uint256",
          "name": "etherReward",
          "type": "uint256"
        }
      ],
      "name": "recyclerRewarded",
      "type": "event"
    },
    {
      "anonymous": false,
      "inputs": [
        {
          "indexed": false,
          "internalType": "address",
          "name": "buyer",
          "type": "address"
        },
        {
          "indexed": true,
          "internalType": "address",
          "name": "plasticBottleAddress",
          "type": "address"
        },
        {
          "indexed": false,
          "internalType": "string",
          "name": "status",
          "type": "string"
        },
        {
          "indexed": false,
          "internalType": "uint256",
          "name": "time",
          "type": "uint256"
        }
      ],
      "name": "updateStatusBuyer",
      "type": "event"
    },
    {
      "constant": false,
      "inputs": [
        {
          "internalType": "address",
          "name": "registerContractAddr",
          "type": "address"
        },
        {
          "internalType": "address",
          "name": "bidderAddr",
          "type": "address"
        }
      ],
      "name": "addBidder",
      "outputs": [],
      "payable": false,
      "stateMutability": "nonpayable",
      "type": "function"
    },
    {
      "constant": true,
      "inputs": [],
      "name": "auctionOwner",
      "outputs": [
        {
          "internalType": "address payable",
          "name": "",
          "type": "address"
        }
      ],
      "payable": false,
      "stateMutability": "view",
      "type": "function"
    },
    {
      "constant": true,
      "inputs": [],
      "name": "contractBalance",
      "outputs": [
        {
          "internalType": "uint256",
          "name": "",
          "type": "uint256"
        }
      ],
      "payable": false,
      "stateMutability": "view",
      "type": "function"
    },
    {
      "constant": true,
      "inputs": [
        {
          "internalType": "uint256",
          "name": "",
          "type": "uint256"
        }
      ],
      "name": "contributors",
      "outputs": [
        {
          "internalType": "address payable",
          "name": "",
          "type": "address"
        }
      ],
      "payable": false,
      "stateMutability": "view",
      "type": "function"
    },
    {
      "constant": false,
      "inputs": [],
      "name": "endAuction",
      "outputs": [],
      "payable": false,
      "stateMutability": "nonpayable",
      "type": "function"
    },
    {
      "constant": true,
      "inputs": [],
      "name": "endTime",
      "outputs": [
        {
          "internalType": "uint256",
          "name": "",
          "type": "uint256"
        }
      ],
      "payable": false,
      "stateMutability": "view",
      "type": "function"
    },
    {
      "constant": false,
      "inputs": [
        {
          "internalType": "address",
          "name": "registerContractAddr",
          "type": "address"
        }
      ],
      "name": "exitAuction",
      "outputs": [],
      "payable": false,
      "stateMutability": "nonpayable",
      "type": "function"
    },
    {
      "constant": true,
      "inputs": [],
      "name": "getTime",
      "outputs": [
        {
          "internalType": "uint256",
          "name": "",
          "type": "uint256"
        }
      ],
      "payable": false,
      "stateMutability": "view",
      "type": "function"
    },
    {
      "constant": true,
      "inputs": [],
      "name": "highestBid",
      "outputs": [
        {
          "internalType": "uint256",
          "name": "",
          "type": "uint256"
        }
      ],
      "payable": false,
      "stateMutability": "view",
      "type": "function"
    },
    {
      "constant": true,
      "inputs": [],
      "name": "highestBidder",
      "outputs": [
        {
          "internalType": "address payable",
          "name": "",
          "type": "address"
        }
      ],
      "payable": false,
      "stateMutability": "view",
      "type": "function"
    },
    {
      "constant": true,
      "inputs": [],
      "name": "isOpen",
      "outputs": [
        {
          "internalType": "bool",
          "name": "",
          "type": "bool"
        }
      ],
      "payable": false,
      "stateMutability": "view",
      "type": "function"
    },
    {
      "constant": false,
      "inputs": [
        {
          "internalType": "address",
          "name": "registerContractAddr",
          "type": "address"
        },
        {
          "internalType": "uint256",
          "name": "amount",
          "type": "uint256"
        }
      ],
      "name": "placeBid",
      "outputs": [],
      "payable": true,
      "stateMutability": "payable",
      "type": "function"
    },
    {
      "constant": true,
      "inputs": [
        {
          "internalType": "uint256",
          "name": "",
          "type": "uint256"
        }
      ],
      "name": "plasticBale",
      "outputs": [
        {
          "internalType": "address",
          "name": "",
          "type": "address"
        }
      ],
      "payable": false,
      "stateMutability": "view",
      "type": "function"
    },
    {
      "constant": false,
      "inputs": [
        {
          "internalType": "address",
          "name": "recycler",
          "type": "address"
        },
        {
          "internalType": "uint256",
          "name": "reward",
          "type": "uint256"
        }
      ],
      "name": "rewardRecycler",
      "outputs": [],
      "payable": false,
      "stateMutability": "nonpayable",
      "type": "function"
    },
    {
      "constant": false,
      "inputs": [
        {
          "internalType": "uint256",
          "name": "closingTime",
          "type": "uint256"
        },
        {
          "internalType": "uint256",
          "name": "startPrice",
          "type": "uint256"
        }
      ],
      "name": "startAuction",
      "outputs": [],
      "payable": true,
      "stateMutability": "payable",
      "type": "function"
    },
    {
      "constant": true,
      "inputs": [],
      "name": "startTime",
      "outputs": [
        {
          "internalType": "uint256",
          "name": "",
          "type": "uint256"
        }
      ],
      "payable": false,
      "stateMutability": "view",
      "type": "function"
    },
    {
      "constant": false,
      "inputs": [
        {
          "internalType": "address",
          "name": "buyerAddress",
          "type": "address"
        },
        {
          "internalType": "address",
          "name": "plasticBottleAddress",
          "type": "address"
        }
      ],
      "name": "updateBottleStatus",
      "outputs": [],
      "payable": false,
      "stateMutability": "nonpayable",
      "type": "function"
    }
  ],
  "bytecode": "0x60806040523480156200001157600080fd5b5060405162001eb338038062001eb3833981018060405260408110156200003757600080fd5b8101908080516401000000008111156200005057600080fd5b828101905060208101848111156200006757600080fd5b81518560208202830111640100000000821117156200008557600080fd5b50509291906020018051640100000000811115620000a257600080fd5b82810190506020810184811115620000b957600080fd5b8151856020820283011164010000000082111715620000d757600080fd5b50509291905050508160009080519060200190620000f792919062000162565b50806001908051906020019062000110929190620001f1565b5033600860006101000a81548173ffffffffffffffffffffffffffffffffffffffff021916908373ffffffffffffffffffffffffffffffffffffffff160217905550600060098190555050506200030c565b828054828255906000526020600020908101928215620001de579160200282015b82811115620001dd5782518260006101000a81548173ffffffffffffffffffffffffffffffffffffffff021916908373ffffffffffffffffffffffffffffffffffffffff1602179055509160200191906001019062000183565b5b509050620001ed919062000280565b5090565b8280548282559060005260206000209081019282156200026d579160200282015b828111156200026c5782518260006101000a81548173ffffffffffffffffffffffffffffffffffffffff021916908373ffffffffffffffffffffffffffffffffffffffff1602179055509160200191906001019062000212565b5b5090506200027c9190620002c6565b5090565b620002c391905b80821115620002bf57600081816101000a81549073ffffffffffffffffffffffffffffffffffffffff02191690555060010162000287565b5090565b90565b6200030991905b808211156200030557600081816101000a81549073ffffffffffffffffffffffffffffffffffffffff021916905550600101620002cd565b5090565b90565b611b97806200031c6000396000f3fe6080604052600436106100db576000357c0100000000000000000000000000000000000000000000000000000000900463ffffffff1680633197cbb6146100e05780633cb5d1001461010b5780633e099a251461018657806347535d7b146102015780634fee13fc14610230578063557ed1ba14610268578063651b13661461029357806378e979251461030457806391f901571461032f578063af57e52714610386578063b1cfa2c6146103f7578063d3924aaf14610448578063d57bde791461049f578063d98b9bb5146104ca578063fe67a54b14610518575b600080fd5b3480156100ec57600080fd5b506100f561052f565b6040518082815260200191505060405180910390f35b34801561011757600080fd5b506101446004803603602081101561012e57600080fd5b8101908080359060200190929190505050610535565b604051808273ffffffffffffffffffffffffffffffffffffffff1673ffffffffffffffffffffffffffffffffffffffff16815260200191505060405180910390f35b34801561019257600080fd5b506101bf600480360360208110156101a957600080fd5b8101908080359060200190929190505050610573565b604051808273ffffffffffffffffffffffffffffffffffffffff1673ffffffffffffffffffffffffffffffffffffffff16815260200191505060405180910390f35b34801561020d57600080fd5b506102166105b1565b604051808215151515815260200191505060405180910390f35b6102666004803603604081101561024657600080fd5b8101908080359060200190929190803590602001909291905050506105c4565b005b34801561027457600080fd5b5061027d610907565b6040518082815260200191505060405180910390f35b34801561029f57600080fd5b50610302600480360360408110156102b657600080fd5b81019080803573ffffffffffffffffffffffffffffffffffffffff169060200190929190803573ffffffffffffffffffffffffffffffffffffffff169060200190929190505050610912565b005b34801561031057600080fd5b506103196109ee565b6040518082815260200191505060405180910390f35b34801561033b57600080fd5b506103446109f4565b604051808273ffffffffffffffffffffffffffffffffffffffff1673ffffffffffffffffffffffffffffffffffffffff16815260200191505060405180910390f35b34801561039257600080fd5b506103f5600480360360408110156103a957600080fd5b81019080803573ffffffffffffffffffffffffffffffffffffffff169060200190929190803573ffffffffffffffffffffffffffffffffffffffff169060200190929190505050610a1a565b005b34801561040357600080fd5b506104466004803603602081101561041a57600080fd5b81019080803573ffffffffffffffffffffffffffffffffffffffff169060200190929190505050610d6b565b005b34801561045457600080fd5b5061045d611085565b604051808273ffffffffffffffffffffffffffffffffffffffff1673ffffffffffffffffffffffffffffffffffffffff16815260200191505060405180910390f35b3480156104ab57600080fd5b506104b46110ab565b6040518082815260200191505060405180910390f35b610516600480360360408110156104e057600080fd5b81019080803573ffffffffffffffffffffffffffffffffffffffff169060200190929190803590602001909291905050506110b1565b005b34801561052457600080fd5b5061052d611592565b005b60065481565b60018181548110151561054457fe5b906000526020600020016000915054906101000a900473ffffffffffffffffffffffffffffffffffffffff1681565b60008181548110151561058257fe5b906000526020600020016000915054906101000a900473ffffffffffffffffffffffffffffffffffffffff1681565b600260009054906101000a900460ff1681565b600860009054906101000a900473ffffffffffffffffffffffffffffffffffffffff1673ffffffffffffffffffffffffffffffffffffffff163373ffffffffffffffffffffffffffffffffffffffff16141515610689576040517f08c379a000000000000000000000000000000000000000000000000000000000815260040180806020018281038252601f8152602001807f41756374696f6e206f776e6572206973206e6f7420617574686f72697a65640081525060200191505060405180910390fd5b60001515600260009054906101000a900460ff161515141515610714576040517f08c379a00000000000000000000000000000000000000000000000000000000081526004018080602001828103825260188152602001807f41756374696f6e20697320616c7265616479206f70656e2e000000000000000081525060200191505060405180910390fd5b42821115156107b1576040517f08c379a00000000000000000000000000000000000000000000000000000000081526004018080602001828103825260278152602001807f41756374696f6e2074696d652063616e206f6e6c792062652073657420696e2081526020017f6675747572652e0000000000000000000000000000000000000000000000000081525060400191505060405180910390fd5b600260095410151515610852576040517f08c379a00000000000000000000000000000000000000000000000000000000081526004018080602001828103825260258152602001807f4e6f7420656e6f7567682062696464657273206172652070617274696369706181526020017f74696e672e00000000000000000000000000000000000000000000000000000081525060400191505060405180910390fd5b6001600260006101000a81548160ff021916908315150217905550806003819055506000600460006101000a81548173ffffffffffffffffffffffffffffffffffffffff021916908373ffffffffffffffffffffffffffffffffffffffff16021790555042600581905550816006819055507fc5282fbd52d785e27be3c357833ab9d6f4a9b295fc938d5874f63c58c8dd18738183604051808381526020018281526020019250505060405180910390a15050565b600060784201905090565b7f01d4a7ede08bba1f109ecd05d7e1c8b37fba73951393648b847f80798ad810a0828242604051808473ffffffffffffffffffffffffffffffffffffffff1673ffffffffffffffffffffffffffffffffffffffff1681526020018373ffffffffffffffffffffffffffffffffffffffff1673ffffffffffffffffffffffffffffffffffffffff16815260200180602001838152602001828103825260048152602001807f736f6c640000000000000000000000000000000000000000000000000000000081525060200194505050505060405180910390a15050565b60055481565b600460009054906101000a900473ffffffffffffffffffffffffffffffffffffffff1681565b8160008190508073ffffffffffffffffffffffffffffffffffffffff1663b8849073336040518263ffffffff167c0100000000000000000000000000000000000000000000000000000000028152600401808273ffffffffffffffffffffffffffffffffffffffff1673ffffffffffffffffffffffffffffffffffffffff16815260200191505060206040518083038186803b158015610ab957600080fd5b505afa158015610acd573d6000803e3d6000fd5b505050506040513d6020811015610ae357600080fd5b81019080805190602001909291905050501515610b68576040517f08c379a00000000000000000000000000000000000000000000000000000000081526004018080602001828103825260188152602001807f426964646572206973206e6f742072656769737465726564000000000000000081525060200191505060405180910390fd5b60001515600760008573ffffffffffffffffffffffffffffffffffffffff1673ffffffffffffffffffffffffffffffffffffffff16815260200190815260200160002060000160009054906101000a900460ff161515141515610c59576040517f08c379a00000000000000000000000000000000000000000000000000000000081526004018080602001828103825260228152602001807f42696464657220616c7265616479206a6f696e6564207468652041756374696f81526020017f6e2e00000000000000000000000000000000000000000000000000000000000081525060400191505060405180910390fd5b600960008154809291906001019190505550606060405190810160405280600115158152602001600081526020016000815250600760008573ffffffffffffffffffffffffffffffffffffffff1673ffffffffffffffffffffffffffffffffffffffff16815260200190815260200160002060008201518160000160006101000a81548160ff02191690831515021790555060208201518160010155604082015181600201559050507f2a0773de1803fc08216fe2134781c1dc2685b4e1b2abf0fa536a200cd6bc838e83604051808273ffffffffffffffffffffffffffffffffffffffff1673ffffffffffffffffffffffffffffffffffffffff16815260200191505060405180910390a150505050565b8060008190508073ffffffffffffffffffffffffffffffffffffffff1663b8849073336040518263ffffffff167c0100000000000000000000000000000000000000000000000000000000028152600401808273ffffffffffffffffffffffffffffffffffffffff1673ffffffffffffffffffffffffffffffffffffffff16815260200191505060206040518083038186803b158015610e0a57600080fd5b505afa158015610e1e573d6000803e3d6000fd5b505050506040513d6020811015610e3457600080fd5b81019080805190602001909291905050501515610eb9576040517f08c379a00000000000000000000000000000000000000000000000000000000081526004018080602001828103825260188152602001807f426964646572206973206e6f742072656769737465726564000000000000000081525060200191505060405180910390fd5b6000600760003373ffffffffffffffffffffffffffffffffffffffff1673ffffffffffffffffffffffffffffffffffffffff16815260200190815260200160002060010154141515610f73576040517f08c379a000000000000000000000000000000000000000000000000000000000815260040180806020018281038252601f8152602001807f42757965722068617320706c6163656420612062696420616c72656164792e0081525060200191505060405180910390fd5b606060405190810160405280600015158152602001600081526020016000815250600760003373ffffffffffffffffffffffffffffffffffffffff1673ffffffffffffffffffffffffffffffffffffffff16815260200190815260200160002060008201518160000160006101000a81548160ff0219169083151502179055506020820151816001015560408201518160020155905050600960008154809291906001900391905055507f7f577a0bf825569d1e06099b3f3fa28e1cf17f996c6eaf713808b7a1e50a5be533604051808273ffffffffffffffffffffffffffffffffffffffff1673ffffffffffffffffffffffffffffffffffffffff16815260200191505060405180910390a1505050565b600860009054906101000a900473ffffffffffffffffffffffffffffffffffffffff1681565b60035481565b8160008190508073ffffffffffffffffffffffffffffffffffffffff1663b8849073336040518263ffffffff167c0100000000000000000000000000000000000000000000000000000000028152600401808273ffffffffffffffffffffffffffffffffffffffff1673ffffffffffffffffffffffffffffffffffffffff16815260200191505060206040518083038186803b15801561115057600080fd5b505afa158015611164573d6000803e3d6000fd5b505050506040513d602081101561117a57600080fd5b810190808051906020019092919050505015156111ff576040517f08c379a00000000000000000000000000000000000000000000000000000000081526004018080602001828103825260188152602001807f426964646572206973206e6f742072656769737465726564000000000000000081525060200191505060405180910390fd5b600760003373ffffffffffffffffffffffffffffffffffffffff1673ffffffffffffffffffffffffffffffffffffffff16815260200190815260200160002060000160009054906101000a900460ff1615156112c3576040517f08c379a00000000000000000000000000000000000000000000000000000000081526004018080602001828103825260208152602001807f42757965722041646472657373206973206e6f7420726567697374657265642e81525060200191505060405180910390fd5b600260009054906101000a900460ff161515611347576040517f08c379a00000000000000000000000000000000000000000000000000000000081526004018080602001828103825260168152602001807f41756374696f6e206973206e6f74206f70656e65642e0000000000000000000081525060200191505060405180910390fd5b600354831115156113c0576040517f08c379a00000000000000000000000000000000000000000000000000000000081526004018080602001828103825260138152602001807f506c616365206120686967686572206269642e0000000000000000000000000081525060200191505060405180910390fd5b8234141515611437576040517f08c379a00000000000000000000000000000000000000000000000000000000081526004018080602001828103825260158152602001807f496e73756666696369656e74204465706f7369742e000000000000000000000081525060200191505060405180910390fd5b600760003373ffffffffffffffffffffffffffffffffffffffff1673ffffffffffffffffffffffffffffffffffffffff1681526020019081526020016000206001016000815480929190600101919050555034600760003373ffffffffffffffffffffffffffffffffffffffff1673ffffffffffffffffffffffffffffffffffffffff168152602001908152602001600020600201600082825401925050819055508260038190555033600460006101000a81548173ffffffffffffffffffffffffffffffffffffffff021916908373ffffffffffffffffffffffffffffffffffffffff1602179055507ff7d2dbe81680a1f0c2b9aaeb63d4184de5c64951ba06bf1b5900341760775a223384604051808373ffffffffffffffffffffffffffffffffffffffff1673ffffffffffffffffffffffffffffffffffffffff1681526020018281526020019250505060405180910390a150505050565b600860009054906101000a900473ffffffffffffffffffffffffffffffffffffffff1673ffffffffffffffffffffffffffffffffffffffff163373ffffffffffffffffffffffffffffffffffffffff16141515611657576040517f08c379a000000000000000000000000000000000000000000000000000000000815260040180806020018281038252601f8152602001807f41756374696f6e206f776e6572206973206e6f7420617574686f72697a65640081525060200191505060405180910390fd5b600260009054906101000a900460ff1615156116db576040517f08c379a00000000000000000000000000000000000000000000000000000000081526004018080602001828103825260188152602001807f41756374696f6e206973206e6f74206176616c69626c652e000000000000000081525060200191505060405180910390fd5b42600654101515611754576040517f08c379a000000000000000000000000000000000000000000000000000000000815260040180806020018281038252601f8152602001807f41756374696f6e206475726174696f6e206973206e6f74207570207965742e0081525060200191505060405180910390fd5b600073ffffffffffffffffffffffffffffffffffffffff16600460009054906101000a900473ffffffffffffffffffffffffffffffffffffffff1673ffffffffffffffffffffffffffffffffffffffff161415151561181b576040517f08c379a00000000000000000000000000000000000000000000000000000000081526004018080602001828103825260188152602001807f4e6f20626964732068617665206265656e20706c61636564000000000000000081525060200191505060405180910390fd5b6000600260006101000a81548160ff0219169083151502179055506000600260035481151561184657fe5b049050600860009054906101000a900473ffffffffffffffffffffffffffffffffffffffff1673ffffffffffffffffffffffffffffffffffffffff166108fc829081150290604051600060405180830381858888f193505050501580156118b1573d6000803e3d6000fd5b506060600180548060200260200160405190810160405280929190818152602001828054801561193657602002820191906000526020600020905b8160009054906101000a900473ffffffffffffffffffffffffffffffffffffffff1673ffffffffffffffffffffffffffffffffffffffff16815260200190600101908083116118ec575b5050505050905060008090506000809050600080600090505b8451811015611acc5760008090505b600180549050811015611a055760018181548110151561197a57fe5b9060005260206000200160009054906101000a900473ffffffffffffffffffffffffffffffffffffffff1673ffffffffffffffffffffffffffffffffffffffff1686838151811015156119c957fe5b9060200190602002015173ffffffffffffffffffffffffffffffffffffffff1614156119f85784806001019550505b808060010191505061195e565b5060008054905084811515611a1657fe5b04925085830291508481815181101515611a2c57fe5b9060200190602002015173ffffffffffffffffffffffffffffffffffffffff166108fc839081150290604051600060405180830381858888f19350505050158015611a7b573d6000803e3d6000fd5b50611abf600460009054906101000a900473ffffffffffffffffffffffffffffffffffffffff168683815181101515611ab057fe5b90602001906020020151610912565b808060010191505061194f565b507fd45a2f7024ca45e3e6e91f9b18ae66023d4fac9a8d8e1f8d23dc5f21cf3ceb6d600460009054906101000a900473ffffffffffffffffffffffffffffffffffffffff1660035442604051808473ffffffffffffffffffffffffffffffffffffffff1673ffffffffffffffffffffffffffffffffffffffff168152602001838152602001828152602001935050505060405180910390a1505050505056fea165627a7a72305820ce8ba0b4915373d9dd4dbc065f4a54bbee286fc9b0b1e88e8c24957717f489300029",
  "source": "pragma solidity ^0.5.0; \n\n interface RegisterSC{\n         function isBuyerExist(address addr) external view returns (bool); \n    }\n\ncontract PlasticBale{\n    \n\n    address[] public plasticBale; // retrived from plasticBaleCompleted event and passed through web3.js\n    address payable[] public contributors; // retrived from plasticBaleCompleted event and passed through web3.js\n  \n // Bid variables \n      bool public isOpen; \n      uint public highestBid; \n      address payable public highestBidder; \n      uint public startTime; \n      uint public endTime; \n\n  \n  struct buyer{\n      bool isExist; \n      uint placedBids; \n      uint deposit; \n  }\n  \n  //Bidder[BuyerAddress]\n  mapping(address=>buyer) bidder; \n  \n  //Seller is the auctionOwner \n   address payable public auctionOwner;\n   \n   // Bidders are the Buyers \n   uint totalBidders; \n    \n    constructor(address[] memory _plasticBale, address payable[] memory _contributors ) public {\n      plasticBale = _plasticBale; \n      contributors = _contributors; \n      auctionOwner = msg.sender; \n      totalBidders = 0; \n  }  \n    \n    \n    modifier onlyOwner{\n        require(msg.sender == auctionOwner, \"Auction owner is not authorized\"); \n        _; \n    }\n    \n    modifier onlyBidder(address registerContractAddr){\n        RegisterSC registerSC = RegisterSC(registerContractAddr); //pass contract address \n        require(registerSC.isBuyerExist(msg.sender), \"Bidder is not registered\"); // might need to edit this to msg.sender instead bidderAddr\n        _;                                                                        //when developing the Dapp \n    }\n    \n    event bidderRegistered (address bidderAddress); \n    event auctionStarted (uint startingAmount, uint closingTime); \n    event bidPlaced(address biddeAddress, uint amount);\n    event bidderExited(address bidderAddress); \n    event bidderRefunded(address biddeAddress, uint amount); \n    event auctionEnded (address highestBidder, uint highestBid , uint closingTime); \n    event updateStatusBuyer(address buyer, address plasticBottleAddress, string status, uint time); \n    \n    \n    function addBidder(address registerContractAddr, address bidderAddr) onlyBidder (registerContractAddr) public {\n        \n    require(bidder[bidderAddr].isExist == false, \"Bidder already joined the Auction.\");\n    totalBidders++; \n    bidder[bidderAddr] = buyer(true, 0, 0); \n    \n    emit bidderRegistered(bidderAddr);\n        \n    }\n    \n    function startAuction(uint closingTime, uint startPrice) onlyOwner payable public {\n        \n        require(isOpen == false, \"Auction is already open.\"); \n        \n        require( closingTime > now, \"Auction time can only be set in future.\");\n        \n        require(totalBidders >= 2, \"Not enough bidders are participating.\"); \n    \n        // address(0) is 0X00.. which is the genusis block \n        isOpen = true; \n        highestBid = startPrice; \n        highestBidder = address(0); \n        startTime = now; \n        endTime = closingTime; \n       \n        emit auctionStarted(startPrice, closingTime); \n    }\n    \n    function placeBid(address registerContractAddr, uint amount)  onlyBidder(registerContractAddr) payable public{\n        \n        require(bidder[msg.sender].isExist, \"Buyer Address is not registered.\"); \n        \n        //something could be wrong here - wrong address (fixed but check)\n        require(isOpen,\"Auction is not opened.\");\n        \n        // To place a bid, amount sent has to be bigger than the highest bid \n        require(amount > highestBid, \"Place a higher bid.\"); \n        \n        //Validating the amount of wei sent with the transaction \n        require(msg.value == amount, \"Insufficient Deposit.\"); \n        \n        bidder[msg.sender].placedBids++; //STOPPED HERE WHEN CHECKING \n        bidder[msg.sender].deposit += msg.value; \n        \n        highestBid = amount; \n        highestBidder= msg.sender; \n        \n        emit bidPlaced(msg.sender, amount); \n        \n    }\n    \n    function exitAuction(address registerContractAddr) onlyBidder(registerContractAddr) public {\n        \n        // Buyers can exit auction if no bids are placed yet \n        require(bidder[msg.sender].placedBids == 0, \"Buyer has placed a bid already.\"); \n        bidder[msg.sender] = buyer(false, 0 ,0); \n        totalBidders--; \n        emit bidderExited(msg.sender); \n    }\n    \n    \n    function endAuction() onlyOwner public{\n        \n        require( isOpen, \"Auction is not avalible.\");\n        require(endTime < now, \"Auction duration is not up yet.\");\n        require(highestBidder != address(0), \"No bids have been placed\"); \n        \n        isOpen = false; \n        \n        uint halfAmount = highestBid/2;\n    \n        // Pay the seller \n        (auctionOwner).transfer(halfAmount); \n        \n        //Calculate each participants' share & reward recyclers \n        \n        address payable[] memory tempArray = contributors; \n        uint contribution = 0; \n        uint contributionRate =0; \n        uint reward; \n        \n        for(uint i=0; i < tempArray.length; i++){\n             for(uint j=0; j < contributors.length; j++){\n                  if(tempArray[i] == contributors[j]){\n                      contribution++;\n                  }\n             }\n             \n             contributionRate = contribution / (plasticBale.length);\n             reward = contributionRate * halfAmount; \n             tempArray[i].transfer(reward); \n             updateBottleStatus(highestBidder, tempArray[i]); \n        }\n          \n        emit auctionEnded(highestBidder, highestBid , now); \n    \n    }\n    \n    function updateBottleStatus(address buyerAddress, address plasticBottleAddress) public {\n        \n        emit updateStatusBuyer(buyerAddress, plasticBottleAddress, \"sold\", now); \n    }\n    \n    // For debugging \n     function getTime()  public view returns (uint){\n        return now + 2 minutes; \n    }\n    \n}",
  "sourcePath": "/Users/eimanalwahhabi/Desktop/RecycleChain/contracts/PlasticBale.sol",
  "compiler": {
    "name": "solc",
    "version": "0.5.0+commit.1d4f565a.Emscripten.clang"
  },
  "schemaVersion": "3.0.1",
  "updatedAt": "2021-01-03T13:27:39.373Z",
  "devdoc": {
    "methods": {}
  },
  "userdoc": {
    "methods": {}
  }
}